:100000000C9462000C948A000C948A000C948A0070
:100010000C948A000C948A000C948A000C948A0038
:100020000C948A000C948A000C948A000C948A0028
:100030000C948A000C948A000C948A000C948A0018
:100040000C94AE000C948A000C94DC020C940D030A
:100050000C948A000C948A000C948A000C948A00F8
:100060000C948A000C948A000000000024002700F1
:100070002A0000000000250028002B0000000000DE
:1000800023002600290004040404040404040202DA
:100090000202020203030303030301020408102007
:1000A0004080010204081020010204081020000012
:1000B0000007000201000003040600000000000029
:1000C0000000C60311241FBECFEFD8E0DEBFCDBFB6
:1000D00011E0A0E0B1E0E2EDF8E002C005900D9281
:1000E000A031B107D9F711E0A0E1B1E001C01D9244
:1000F000A03CB107E1F710E0C4ECD0E004C02297C7
:10010000FE010E946304C23CD107C9F70E940304A8
:100110000C943C040C94000081EA91E040E855E224
:1001200060E070E00E9448038DE061E00E94AB0156
:1001300008958DE061E00E94F00161E070E080E0F0
:1001400090E00E941C018DE060E00E94F00161E0FF
:1001500070E080E090E00E941C0108951F920F92D1
:100160000FB60F9211242F933F938F939F93AF93CA
:10017000BF938091140190911501A0911601B09147
:100180001701309118010196A11DB11D232F2D5F7C
:100190002D3720F02D570196A11DB11D2093180178
:1001A0008093140190931501A0931601B093170149
:1001B0008091100190911101A0911201B091130151
:1001C0000196A11DB11D8093100190931101A09380
:1001D0001201B0931301BF91AF919F918F913F9105
:1001E0002F910F900FBE0F901F9018959FB7F89406
:1001F0002091100130911101409112015091130191
:1002000086B5A89B06C08F3F21F02F5F3F4F4F4F11
:100210005F4F9FBF542F432F322F2227280F311DAE
:10022000411D511D82E0220F331F441F551F8A9527
:10023000D1F7B901CA010895EF92FF920F931F936E
:10024000CF93DF937B018C010E94F600EB010FC07E
:100250000E94F6006C1B7D0B83E0683E780738F047
:100260000894E108F10801091109C851DC4FE114B3
:10027000F1040105110561F7DF91CF911F910F91F5
:10028000FF90EF900895789484B5826084BD84B522
:10029000816084BD85B5826085BD85B5816085BD81
:1002A000EEE6F0E0808181608083E1E8F0E010829A
:1002B000808182608083808181608083E0E8F0E0DB
:1002C000808181608083E1EBF0E0808184608083C5
:1002D000E0EBF0E0808181608083EAE7F0E08081FC
:1002E000846080838081826080838081816080835C
:1002F0008081806880831092C1000895833071F0FE
:10030000843028F48130A1F0823021F514C0863089
:10031000B1F08730D1F08430E9F404C080918000DE
:100320008F7703C0809180008F7D80938000089537
:1003300084B58F7702C084B58F7D84BD0895809188
:10034000B0008F778093B00008958091B0008F7DCA
:100350008093B0000895EF92FF92CF93DF9390E0E7
:10036000FC01E656FF4F44918A579F4FFC01849150
:10037000882389F190E0880F991FFC01E859FF4F0D
:1003800025913491D9018E589F4FFC0125913491CC
:10039000E22EE7017E01F32EE701662349F49FB7C1
:1003A000F8948C91409584238C93888184230BC08E
:1003B000623059F49FB7F8948C91242F20958223B2
:1003C0008C938881842B888305C09FB7F8948C9187
:1003D000842B8C939FBFDF91CF91FF90EF90089576
:1003E0000F931F93DF93CF930F92CDB7DEB7282FD4
:1003F00030E0F901E255FF4F8491F901E656FF4FD5
:1004000014912A573F4FF90104910023D9F0882312
:1004100021F069830E947E016981E02FF0E0EE0FF8
:10042000FF1FEE58FF4F85919491DC019FB7F89420
:10043000662321F48C911095812302C08C91812B2D
:100440008C939FBF0F90CF91DF911F910F910895D3
:10045000FC0184859585FC01E05CFF4F20813181A2
:100460008E5B9F4FFC0180819181281B390B2F737C
:100470003070C9010895FC0184859585FC01E05C1C
:10048000FF4F40815181FC01EE5BFF4F20813181A4
:100490004217530741F00190F081E02DE80FF91F5A
:1004A000208130E002C02FEF3FEFC9010895FC0129
:1004B00084859585FC01E05CFF4F40815181FC0102
:1004C000EE5BFF4F208131814217530771F0A0810D
:1004D000B181A80FB91F2C918081918101968F73F2
:1004E00090709183808330E002C02FEF3FEFC9010D
:1004F0000895DC011E968D919C911F97FC01E05C94
:10050000FF4F8E5B9F4F40815181DC012D913C91CB
:10051000119742175307B9F70895FC0126853785CF
:10052000D901A05CBF4F8D919C9101968F73907003
:10053000D901AE5BBF4F4D915C9111978417950720
:10054000D1F3D901A05CBF4F0D90BC91A02DA20F9B
:10055000B31F6C93A685B785A05CBF4F11969C9383
:100560008E93A689B7892C9181E090E0058C02C01A
:10057000880F991F0A94E2F7282B2C9381E090E0D2
:100580000895FB01E05CFF4F208131812F5F3F4FD9
:100590002F733070DB01AE5BBF4F4D915C911197B3
:1005A0002417350739F0A081B181A60FB71F8C93AE
:1005B00031832083089508951F920F920FB60F92F2
:1005C00011242F933F934F935F936F937F938F9358
:1005D0009F93AF93BF93EF93FF938091C60069E120
:1005E00071E00E94C102FF91EF91BF91AF919F9185
:1005F0008F917F916F915F914F913F912F910F90CC
:100600000FBE0F901F90189581EA91E00E9428027A
:10061000009711F00E94DB0208951F920F920FB60F
:100620000F9211242F933F938F939F93EF93FF93F8
:1006300020919D0130919E0180919F019091A00198
:100640002817390731F48091C1008F7D8093C10054
:1006500014C0E0919F01F091A001E35AFE4F208168
:1006600080919F019091A00101968F73907090935B
:10067000A00180939F012093C600FF91EF919F916D
:100680008F913F912F910F900FBE0F901F90189553
:10069000DF92EF92FF920F931F93CF93DF93EC01C2
:1006A0007A018B01DD24D394403081EE580780E03D
:1006B000680780E0780749F4DD24EC89FD89108221
:1006C00060E874E88EE190E00FC0EC89FD8981E07C
:1006D00090E00E8C02C0880F991F0A94E2F7808385
:1006E00060E079E08DE390E0A80197010E943F046B
:1006F00021503040404050405695479537952795BA
:1007000080E12030380710F0DD20B1F6E889F98962
:100710003083EA89FB892083EE89FF89408181E06B
:1007200090E09C010A8C02C0220F331F0A94E2F76A
:10073000422B4083EE89FF8940819C010B8C02C0D3
:10074000220F331F0A94E2F7422B4083EE89FF8980
:1007500040819C010C8C02C0220F331F0A94E2F7E7
:10076000422B4083EE89FF8920810D8C02C0880FC7
:10077000991F0A94E2F7809582238083DF91CF91BD
:100780001F910F91FF90EF90DF9008951092A401B8
:100790001092A30188EE93E0A0E0B0E08093A50161
:1007A0009093A601A093A701B093A801E3EAF1E01A
:1007B00084E091E09293829389E191E09587848728
:1007C0008DE591E09787868785EC90E0918B808B13
:1007D00084EC90E0938B828B80EC90E0958B848B03
:1007E00081EC90E0978B868B86EC90E0918F808FE8
:1007F00084E0828F83E0838F87E0848F85E0858F1C
:1008000081E0868F0895CF93DF930E9443010E9479
:100810008C00C4E0D3E00E9499002097E1F30E948D
:100820000403F9CFCF92DF92EF92FF920F931F93C1
:10083000CF93DF936C017B018A01C0E0D0E00FC051
:10084000D7016D917D01D601ED91FC910190F08170
:10085000E02DC6010995C80FD91F015010400115A0
:10086000110571F7CE01DF91CF911F910F91FF908C
:10087000EF90DF90CF900895F8940C946704A1E274
:100880001A2EAA1BBB1BFD010DC0AA1FBB1FEE1F0A
:10089000FF1FA217B307E407F50720F0A21BB30B55
:1008A000E40BF50B661F771F881F991F1A9469F7D1
:1008B00060957095809590959B01AC01BD01CF012D
:1008C0000895EE0FFF1F0590F491E02D0994F89420
:0208D000FFCF58
:1008D200000000008D021204280257023B02790236
:00000001FF
