:100000000C9483000C94AB000C94AB000C94AB00EC
:100010000C94AB000C94AB000C94AB000C94AB00B4
:100020000C94AB000C94AB000C94AB000C94AB00A4
:100030000C94AB000C94AB000C94AB000C94AB0094
:100040000C94BF030C94AB000C9416060C9447065A
:100050000C94AB000C94AB000C94AB000C94AB0074
:100060000C94AB000C94AB00B001B901BC01C5010C
:10007000CE01D701DC01E701EE01030228022D02C7
:10008000360246025C02610266026F0275027D0260
:10009000850290029A02A302B102DC020703070361
:1000A000C202F302DC020703F30200000000240096
:1000B00027002A0000000000250028002B00000077
:1000C000000023002600290004040404040404049E
:1000D00002020202020203030303030301020408F3
:1000E00010204080010204081020010204081020A2
:1000F00000000007000201000003040600000000E9
:1001000000000000570711241FBECFEFD8E0DEBF6C
:10011000CDBF11E0A0E0B1E0ECE9F4E102C0059050
:100120000D92A834B107D9F713E0A8E4B1E001C0FB
:100130001D92A930B107E1F711E0C6E0D1E004C09B
:100140002297FE010E94480AC430D107C9F70E94D5
:1001500094070C949A090C94000008951F9385EE5F
:1001600092E00E94630582309105C8F385EE92E02B
:100170000E949205182F85EE92E00E949205282F8A
:1001800030E0512F40E0242B352BC9011F910895F9
:10019000EF92FF920F931F93CF93DF937B01082F72
:1001A000192FC0E0D0E007C00E94AE00F801819393
:1001B00091938F012196CE15DF05B4F3DF91CF9196
:1001C0001F910F91FF90EF9008950E94AE00BC0127
:1001D000880F991F885B9E4F90934F0280934E0229
:1001E00088E491E00E94C80008950F931F93CF9375
:1001F000DF93EC0105EE12E0692F772767FD7A9512
:10020000C8010E94C805C8016C2F0E94C805DF9173
:10021000CF911F910F910895CF93DF93EB010E942F
:10022000F500CE010E94F500DF91CF91089580E0A6
:1002300090E060E070E00E940C01089588E491E095
:1002400090934D0280934C0290934F0280934E0204
:1002500004C085EE92E00E94920585EE92E00E9435
:10026000630518161906ACF308950F931F9385EED6
:1002700092E040E05BE460E070E00E9482068DE086
:1002800061E00E94BC0480E290E00E9412088C01B0
:10029000809348021093490280E290E00E94120885
:1002A00080934A0290934B020093500210935102A4
:1002B00080935202909353020E941E011F910F914E
:1002C0000895E0915002F091510281939193F0933F
:1002D0005102E09350020895E0915002F0915102D2
:1002E0003297F0935102E0935002808191810895FA
:1002F000E0915202F091530281939193F093530253
:10030000E09352020895E0915202F0915302329725
:10031000F0935302E0935202808191810895EF920D
:10032000FF920F931F93DF93CF9300D0CDB7DEB72B
:1003300080914C0290914D02DC016D917D91B093C2
:100340004D02A0934C026132710508F059C16C5CFA
:100350007F4FFB01EE0FFF1F0590F491E02D0994F4
:10036000FC01828193811296B0934D02A0934C02BE
:10037000E7C00E946C01EFC082E090E060E070E0B6
:100380000E940C010E94AE00DBC00E946C018A83B7
:100390000E946C016A810E94BC0439C10E946C01F8
:1003A0008A830E946C016A810E94010530C10E940B
:1003B0006C010E943905C4C00E946C019C01B90106
:1003C000882777FD8095982F0E942D0420C16FEF1C
:1003D0007FEF80E090E00E94CD0712C00E946C0188
:1003E0008C010E946C01FC01BF01882777FD80957C
:1003F000982F9801442737FD4095542F0E94EB0712
:10040000DC01CB019DC00E946C018B309105D8F4BA
:10041000FC01EE0FFF1FEE0FFF1FE55FFE4FE080B8
:10042000F18002811381E114F1040105110559F0F5
:1004300085EE92E00E94000785EE92E0B801A701E8
:100440000E948206E4C084E090E060E070E0DAC0E0
:100450000E946C010E943E0373C00E946C018C01DB
:100460000E946C01B8010E945F03D1C00E946C0120
:10047000BC01F2E080309F0730F484E093E00E94FA
:10048000090890E05DC084E090E0BCC00E946C016F
:10049000BC0122E08030920760F48A8379830E9455
:1004A0006C01482F84E093E06A8179810E940D08F5
:1004B000AEC084E090E052C00E946C010E9412081D
:1004C0003FC00E946C010E94AC08A1C00E946C0158
:1004D0008C010E946C01F8019183808398C00E9476
:1004E0006C01FC01808191812BC00E946C018C0108
:1004F0000E946C01F80180838AC00E946C01FC019B
:100500008081992787FD90951BC00E946C017C011A
:100510000E946C018C01C7010E946101C80110C0DA
:1005200080915002909151020297909351028093D2
:1005300050026DC00E946C017C010E946101C701E4
:100540000E94610164C082E090E060E070E00E947F
:100550000C010E94AE00BC0181E090E00E940C0101
:1005600056C00E946C018C010E946C017C018017B6
:1005700091070CF04CC0C8010E947801C7010E948D
:10058000780145C0FC01028113811296B0934D029F
:10059000A0934C020E94830101960E947801000FF3
:1005A000111F80914C0290914D02801B910B9093F2
:1005B0004D0280934C022BC00E946C01E0914C02D2
:1005C000F0914D0221913191F0934D02E0934C0254
:1005D0000097E9F4220F331F2E0F3F1F30934D0277
:1005E00020934C0214C01296FC0182819381880FE3
:1005F000991FA81BB90BB0934D02A0934C0207C0E2
:1006000083E090E00E940C012FEF3FEF02C020E05A
:1006100030E0C9010F900F90CF91DF911F910F91A2
:10062000FF90EF90089506C00E948F012FEF8F3F3B
:10063000920771F020914C0230914D0280914E0250
:1006400090914F022817390778F320E030E002C07C
:100650002FEF3FEFC901089585EE92E00E946305F8
:100660008230910550F00E94E5000E94130300972C
:1006700011F40E9417010E941E0108958E3008F0A7
:100680008E50877090910A019295990F990F907CE6
:10069000982B90937C0080917A00806480937A00FC
:1006A00080917A0086FDFCCF20917800309179000E
:1006B000932F80E030E0282B392BC90108951F9338
:1006C000CF93DF93182FEB0161E00E94BC042097C9
:1006D00009F44AC0CF3FD10509F449C0E12FF0E049
:1006E000E051FF4FE491E330C1F0E43028F4E13011
:1006F00051F0E230B1F50CC0E63019F1E73049F1C4
:10070000E43079F514C084B5806884BDC7BD33C0BA
:1007100084B5806284BDC8BD2EC080918000806891
:1007200080938000D0938900C093880024C080917A
:100730008000806280938000D0938B00C0938A00F9
:100740001AC08091B00080688093B000C093B3005D
:1007500012C08091B00080628093B000C093B4005A
:100760000AC0C038D1051CF4812F60E002C0812F7F
:1007700061E00E940105DF91CF911F9108951F92C2
:100780000F920FB60F9211242F933F938F939F9345
:10079000AF93BF938091580290915902A0915A0251
:1007A000B0915B0230915C020196A11DB11D232F17
:1007B0002D5F2D3720F02D570196A11DB11D2093DF
:1007C0005C028093580290935902A0935A02B0930E
:1007D0005B028091540290915502A0915602B09113
:1007E00057020196A11DB11D8093540290935502AA
:1007F000A0935602B0935702BF91AF919F918F91F2
:100800003F912F910F900FBE0F901F9018959FB79B
:10081000F894209154023091550240915602509123
:10082000570286B5A89B06C08F3F21F02F5F3F4F30
:100830004F4F5F4F9FBF542F432F322F2227280F38
:10084000311D411D511D82E0220F331F441F551FD2
:100850008A95D1F7B901CA010895EF92FF920F93DB
:100860001F93CF93DF937B018C010E940704EB0160
:100870000FC00E9407046C1B7D0B83E0683E780765
:1008800038F00894E108F10801091109C851DC4F5A
:10089000E114F1040105110561F7DF91CF911F917A
:1008A0000F91FF90EF900895789484B5826084BD95
:1008B00084B5816084BD85B5826085BD85B5816064
:1008C00085BDEEE6F0E0808181608083E1E8F0E0C4
:1008D0001082808182608083808181608083E0E8F3
:1008E000F0E0808181608083E1EBF0E080818460D2
:1008F0008083E0EBF0E0808181608083EAE7F0E0D4
:100900008081846080838081826080838081816037
:1009100080838081806880831092C1000895833035
:1009200071F0843028F48130A1F0823021F514C0B8
:100930008630B1F08730D1F08430E9F404C0809182
:1009400080008F7703C0809180008F7D809380002E
:10095000089584B58F7702C084B58F7D84BD0895D6
:100960008091B0008F778093B00008958091B0009F
:100970008F7D8093B0000895EF92FF92CF93DF9325
:1009800090E0FC01E452FF4F449188539F4FFC01DB
:100990008491882389F190E0880F991FFC01E65526
:1009A000FF4F25913491D9018C549F4FFC01259123
:1009B0003491E22EE7017E01F32EE701662349F42C
:1009C0009FB7F8948C91409584238C9388818423DD
:1009D0000BC0623059F49FB7F8948C91242F209566
:1009E00082238C938881842B888305C09FB7F894D9
:1009F0008C91842B8C939FBFDF91CF91FF90EF90D0
:100A000008950F931F93DF93CF930F92CDB7DEB767
:100A1000282F30E0F901E051FF4F8491F901E452B1
:100A2000FF4F149128533F4FF90104910023D9F04F
:100A3000882321F069830E948F046981E02FF0E010
:100A4000EE0FFF1FEC54FF4F85919491DC019FB78F
:100A5000F894662321F48C911095812302C08C9127
:100A6000812B8C939FBF0F90CF91DF911F910F919E
:100A700008950F931F93282F30E0F901E051FF4FA5
:100A80008491F901E452FF4F049128533F4FF9013B
:100A90001491112391F0882311F00E948F04E12F0B
:100AA000F0E0EE0FFF1FE254FF4F85919491DC01BF
:100AB0008C91802321E030E011F420E030E0C90186
:100AC0001F910F910895FC0184859585FC01E05CE0
:100AD000FF4F208131818E5B9F4FFC01808191818E
:100AE000281B390B2F733070C9010895FC018485D0
:100AF0009585FC01E05CFF4F40815181FC01EE5B7C
:100B0000FF4F208131814217530741F00190F0815E
:100B1000E02DE80FF91F208130E002C02FEF3FEFFA
:100B2000C9010895FC0184859585FC01E05CFF4FB7
:100B300040815181FC01EE5BFF4F208131814217E2
:100B4000530771F0A081B181A80FB91F2C9180814A
:100B5000918101968F7390709183808330E002C001
:100B60002FEF3FEFC9010895DC011E968D919C91F6
:100B70001F97FC01E05CFF4F8E5B9F4F40815181CE
:100B8000DC012D913C91119742175307B9F7089555
:100B9000FC0126853785D901A05CBF4F8D919C91C2
:100BA00001968F739070D901AE5BBF4F4D915C91F0
:100BB000119784179507D1F3D901A05CBF4F0D9011
:100BC000BC91A02DA20FB31F6C93A685B785A05C26
:100BD000BF4F11969C938E93A689B7892C9181E083
:100BE00090E0058C02C0880F991F0A94E2F7282B29
:100BF0002C9381E090E00895FB01E05CFF4F2081A1
:100C000031812F5F3F4F2F733070DB01AE5BBF4FE1
:100C10004D915C9111972417350739F0A081B1816E
:100C2000A60FB71F8C933183208308951F920F92D4
:100C30000FB60F9211242F933F934F935F936F93AF
:100C40007F938F939F93AF93BF93EF93FF93809185
:100C5000C6006DE572E00E94FC05FF91EF91BF9127
:100C6000AF919F918F917F916F915F914F913F9144
:100C70002F910F900FBE0F901F90189585EE92E068
:100C80000E946305009711F00E942C0308951F92A3
:100C90000F920FB60F9211242F933F938F939F9330
:100CA000EF93FF932091E1023091E2028091E30201
:100CB0009091E4022817390731F48091C1008F7DAB
:100CC0008093C10014C0E091E302F091E402EF557B
:100CD000FD4F20818091E3029091E40201968F7391
:100CE00090709093E4028093E3022093C600FF91FA
:100CF000EF919F918F913F912F910F900FBE0F9089
:100D00001F901895DF92EF92FF920F931F93CF934E
:100D1000DF93EC017A018B01DD24D394403081EE26
:100D2000580780E0680780E0780749F4DD24EC8903
:100D3000FD89108260E874E88EE190E00FC0EC89D4
:100D4000FD8981E090E00E8C02C0880F991F0A9403
:100D5000E2F7808360E079E08DE390E0A8019701FD
:100D60000E94D2092150304040405040569547954E
:100D70003795279580E12030380710F0DD20B1F657
:100D8000E889F9893083EA89FB892083EE89FF8924
:100D9000408181E090E09C010A8C02C0220F331F49
:100DA0000A94E2F7422B4083EE89FF8940819C013F
:100DB0000B8C02C0220F331F0A94E2F7422B4083B0
:100DC000EE89FF8940819C010C8C02C0220F331FE9
:100DD0000A94E2F7422B4083EE89FF8920810D8C33
:100DE00002C0880F991F0A94E2F7809582238083BE
:100DF000DF91CF911F910F91FF90EF90DF900895B9
:100E0000CF93DF93FC0186859785DC01A05CBF4F03
:100E10008E5B9F4F4D915C911197EC012881398138
:100E200042175307B9F7A689B7894C9181E090E042
:100E30009C01028C02C0220F331F0A94E2F7209516
:100E400024232C93A689B7894C919C01038C02C062
:100E5000220F331F0A94E2F7209524232C93A689AE
:100E6000B7894C919C01048C02C0220F331F0A9455
:100E7000E2F7209524232C93A689B7892C91058C21
:100E800002C0880F991F0A94E2F7809582238C9301
:100E900084859585FC01EE5BFF4F20813181805C6C
:100EA0009F4FFC0131832083DF91CF9108951092F1
:100EB000E8021092E70288EE93E0A0E0B0E08093B1
:100EC000E9029093EA02A093EB02B093EC02E7EE02
:100ED000F2E08BE391E0929382938DE592E0958727
:100EE000848781EA92E09787868785EC90E0918BF2
:100EF000808B84EC90E0938B828B80EC90E0958BE0
:100F0000848B81EC90E0978B868B86EC90E0918FC0
:100F1000808F84E0828F83E0838F87E0848F85E0F9
:100F2000858F81E0868F0895CF93DF930E945404CC
:100F30000E943501CEE3D6E00E94AD002097E1F398
:100F40000E943E06F9CFCF92DF92EF92FF920F936D
:100F50001F93CF93DF936C017B018A01C0E0D0E047
:100F60000FC0D7016D917D01D601ED91FC910190EB
:100F7000F081E02DC6010995C80FD91F015010401E
:100F80000115110571F7CE01DF91CF911F910F91DE
:100F9000FF90EF90DF90CF900895EF92FF920F9324
:100FA0001F937B018C01611571058105910549F045
:100FB0000E948C09A80197010E94F4099B01AC01D1
:100FC00003C020E030E0A901B901CA011F910F91CF
:100FD000FF90EF900895EF92FF920F931F937B0184
:100FE0008C01621773078407950764F4CA01B9017D
:100FF0006E197F09800B910B0E94CD07E60EF71E3C
:10100000081F191FB701C8011F910F91FF90EF90A2
:101010000895CB010E949D090895CB01642F0E9481
:10102000A5090895CF93DF938230910510F482E0F3
:1010300090E0E0910703F091080340E050E020E0E9
:1010400030E026C06081718168177907E0F0681789
:10105000790781F4828193812115310531F0D9011D
:1010600013969C938E9312972BC0909308038093B2
:10107000070326C04115510519F06417750718F4C8
:10108000AB01E901DF019F0172816381E72FF62F38
:101090003097C1F64115510501F1481B590B4430F9
:1010A000510580F412968D919C911397209719F019
:1010B0009B838A8304C09093080380930703FD01F8
:1010C000329646C0FD01E40FF51F81939193425083
:1010D000504011965C934E933BC020910503309194
:1010E00006032115310541F42091020130910301DD
:1010F00030930603209305032091040130910501EC
:101100002115310541F42DB73EB7409100015091B2
:101110000101241B350BE0910503F0910603E21752
:10112000F307A0F42E1B3F0B2817390778F0AC010A
:101130004E5F5F4F2417350748F04E0F5F1F5093E7
:101140000603409305038193919302C0E0E0F0E031
:10115000CF01DF91CF910895CF93DF93009709F4EA
:1011600091C0FC0132971382128260910703709143
:1011700008036115710581F420813181280F391F21
:1011800080910503909106038217930799F5F093D8
:101190000603E093050376C0DB0180E090E002C027
:1011A000CD01D901AE17BF0748F412962D913C919D
:1011B000139721153105A1F7CD0121C0B383A28377
:1011C000EF01499159919E01240F351FA217B307D2
:1011D00079F42D913C911197240F351F2E5F3F4FCD
:1011E0003183208312962D913C9113973383228370
:1011F000009729F4F0930803E093070343C0DC0150
:101200001396FC93EE9312974D915D91A40FB51F29
:10121000EA17FB0769F420813181240F351F2E5F07
:101220003F4FEC0139832883228133813B832A831A
:10123000E0E0F0E002C0FB01BC01DB0112968D9101
:101240009C9113970097B9F79B012E5F3F4F8D91AB
:101250009C911197820F931F4091050350910603B3
:101260004817590779F4309729F41092080310921F
:10127000070302C0138212822250304030930603CB
:1012800020930503DF91CF910895A0E0B0E0EBE457
:10129000F9E00C94170AEC01688179818A819B81BD
:1012A000611571058105910521F464E279ED8BE505
:1012B00097E02DE133EF41E050E00E94F40979011D
:1012C0008A0127EA31E440E050E00E94B3095B0163
:1012D0006C01C801B7012CEE34EF4FEF5FEF0E94B5
:1012E000B3099B01AC012A0D3B1D4C1D5D1D57FF31
:1012F00004C02150304040405048288339834A83FD
:101300005B835F77B901CA01CDB7DEB7EAE00C9421
:10131000330A0E944509089586E091E00E9445093C
:1013200008956093060170930701809308019093DC
:1013300009010895F8940C944C0AF999FECF92BDD6
:1013400081BDF89A992780B50895262FF999FECF87
:101350001FBA92BD81BD20BD0FB6F894FA9AF99AD2
:101360000FBE01960895629FD001739FF001829F86
:10137000E00DF11D649FE00DF11D929FF00D839F24
:10138000F00D749FF00D659FF00D9927729FB00DC1
:10139000E11DF91F639FB00DE11DF91FBD01CF01D4
:1013A00011240895A1E21A2EAA1BBB1BFD010DC03A
:1013B000AA1FBB1FEE1FFF1FA217B307E407F50705
:1013C00020F0A21BB30BE40BF50B661F771F881FE1
:1013D000991F1A9469F760957095809590959B0177
:1013E000AC01BD01CF01089597FB092E05260ED053
:1013F00057FD04D0D7DF0AD0001C38F45095409533
:10140000309521953F4F4F4F5F4F0895F6F79095D8
:101410008095709561957F4F8F4F9F4F08952F92C4
:101420003F924F925F926F927F928F929F92AF9274
:10143000BF92CF92DF92EF92FF920F931F93CF93C1
:10144000DF93CDB7DEB7CA1BDB0B0FB6F894DEBF58
:101450000FBECDBF09942A88398848885F846E847E
:101460007D848C849B84AA84B984C884DF80EE80C8
:10147000FD800C811B81AA81B981CE0FD11D0FB6D1
:10148000F894DEBF0FBECDBFED010895EE0FFF1F34
:0C1490000590F491E02D0994F894FFCF32
:10149C0020000903000001000000012C010000B035
:1014AC0004000060090000C012000080250000400C
:1014BC00380000004B000080700000009600000017
:1014CC00E1000000C2010000000000C805A3076392
:0814DC000592057605B4050038
:00000001FF
